:100000000C9434000C9451000C9451000C94510049
:100010000C9451000C9451000C9451000C9451001C
:100020000C9451000C9451000C9451000C9451000C
:100030000C9451000C9451000C9451000C945100FC
:100040000C9451000C9451000C9451000C945100EC
:100050000C9451000C9451000C9451000C945100DC
:100060000C9451000C94510011241FBECFEFD8E026
:10007000DEBFCDBF11E0A0E0B1E0E4EAFEE002C0E7
:1000800005900D92A637B107D9F721E0A6E7B1E0B8
:1000900001C01D92A238B207E1F70E9458010C94EA
:1000A00050070C94000083E480937C00EAE7F0E0C2
:1000B00080818064808380917A0086FDFCCF80916E
:1000C000780090917900089584E480937C00EAE7B9
:1000D000F0E080818064808380917A0086FDFCCF8F
:1000E00080917800909179000895E0EBF0E08081B4
:1000F00083628083E1EBF0E08081826080838AB15B
:1001000088608AB90895CF93DF93EB018295929529
:10011000907F9827807F98279C01990F440B550B5F
:1001200060E472E48FE090E00E9444042150209348
:10013000B40080E090E007C0E9EFF0E03197F1F71C
:1001400000C0000001968C179D07B4F31092B40014
:10015000DF91CF910895CF93DF9300D000D01F920D
:10016000CDB7DEB7782FFE01319695E0DF011D9205
:100170009A95E9F797B1906297B998B1906298B95A
:10018000BFEF21EE84E0B15020408040E1F700C095
:10019000000098B19F7D98B99FEFA0EEB0E091501C
:1001A000A040B040E1F700C0000098B1906298B95B
:1001B00025E02A95F1F7000097B19F7D97B980ED72
:1001C0008A95F1F735995AC0AFE3B1E01197F1F78D
:1001D00000C00000359B54C08FE391E00197F1F718
:1001E00000C0000080E023C0359BFECFA0EAAA95A6
:1001F000F1F7359B0CC047E050E0491B510921E065
:1002000030E002C0220F331F4A95E2F7622B359986
:10021000FECF9F5F02C060E090E0983028F3E1E0FD
:10022000F0E0EC0FFD1FE80FF11D60838F5F85305C
:1002300090F387B1806287B988B1806288B9BFEFD7
:1002400021EE84E0B15020408040E1F700C0000082
:1002500099812A8130E0290F311D8B81280F311DB2
:100260004C81240F311D4D8150E02417350751F486
:10027000772359F0713041F08FEF07C08FEF05C041
:100280008FEF03C08FEF01C0892F0F900F900F9059
:100290000F900F90DF91CF910895CF93DF93EB01F3
:1002A0000E94AB008F3F09F08883DF91CF910895C2
:1002B000CF93DF93CDB7DEB7A9970FB6F894DEBF23
:1002C0000FBECDBF87E880937A001982FE01329677
:1002D00088E2DF011D928A95E9F70E9412040E94CC
:1002E00006040E9417020E94B002BE016F5F7F4F9A
:1002F00080E00E944D0189811F928F9381E091E0FF
:100300009F938F938E010E5F1F4F1F930F930E9439
:100310006604C8010E9427040F2EF8E2FF2EF02D7C
:10032000F8012F2D11922A95E9F78FEF93EDA0E3B5
:1003300081509040A040E1F700C00000BE016F5F17
:100340007F4F81E00E944D0189811F928F9380E150
:1003500091E09F938F931F930F930E946604C801AF
:100360000E942704F8011192FA94E9F7FFEF23EDB8
:1003700080E3F15020408040E1F700C000000E947F
:1003800064009F938F938DE191E09F938F9306E795
:1003900011E01F930F930E946604C8010E94370466
:1003A0009FEFA3EDB0E39150A040B040E1F700C053
:1003B00000000E9453009F938F9389E291E09F93E6
:1003C0008F931F930F930E946604C8010E94370405
:1003D000EFEFF3ED20E3E150F0402040E1F700C003
:1003E00000000E9424020E9464020E94A603182FAB
:1003F0000E94C2030FB6F894DEBF0FBECDBF11231B
:1004000049F080910001882329F00E94BC021092DB
:1004100000016BCF112309F468CF80910001811195
:1004200064CF0E94310381E0809300015ECF8AB1E6
:1004300084608AB987B18E7F87B988B1816088B9B5
:1004400088B1826088B90895CF93DF93319B1DC036
:100450008BE0E6E3F1E0A6E7B1E001900D928A952A
:10046000E1F786E791E00E9437048BB1877F8BB973
:100470008AB1877F8AB92FEF83ED90E321508040C6
:100480009040E1F700C000001CC08BE0E1E4F1E027
:10049000A6E7B1E001900D928A95E1F786E791E039
:1004A0000E9437040E947500C1E0D0E007C060E1FF
:1004B00077E284EF91E00E9483002196C630D10557
:1004C000B4F3DF91CF910895309B1AC08CE0ECE437
:1004D000F1E0A6E7B1E001900D928A95E1F786E799
:1004E00091E00E9437042FEF39E688E12150304037
:1004F0008040E1F700C000008BB184608BB90895A3
:100500008CE0E8E5F1E0A6E7B1E001900D928A9574
:10051000E1F786E791E00E9437049FEF29E638E192
:10052000915020403040E1F700C000000E9464007C
:10053000883B914088F48BB18B7F8BB93AEA86EE89
:1005400096E921E03150804090402040D9F70000EA
:100550008BB184608BB908958BB184608BB9089599
:1005600087B18B7F87B988B1846088B98AB1806F81
:100570008AB90E940604089540E050E06BC08BB138
:100580008F788BB98BB180688BB98FE99FE0019729
:10059000F1F700C000008BB18F7C8BB98BB1806C00
:1005A0008BB98FE99FE00197F1F700C000008BB194
:1005B0008F748BB98BB180648BB98FE99FE0019701
:1005C000F1F700C000008BB18F768BB98BB18066DC
:1005D0008BB98FE99FE00197F1F700C000008BB164
:1005E0008F728BB98BB180628BB98FE99FE00197D5
:1005F000F1F700C000008BB18F738BB98BB18063B2
:100600008BB98FE99FE00197F1F700C000008BB133
:100610008F718BB98BB180618BB98FE99FE00197A6
:10062000F1F700C000008BB18F798BB98BB1806975
:100630008BB98FE99FE00197F1F700C000002F5FB1
:100640003F4F02C020E030E0283031050CF497CF56
:100650004F5F5F4F40345105ACF38BB18F708BB956
:10066000089540E050E06BC08BB18F798BB98BB1AE
:1006700080698BB98FE99FE00197F1F700C0000016
:100680008BB18F718BB98BB180618BB98FE99FE092
:100690000197F1F700C000008BB18F738BB98BB15C
:1006A00080638BB98FE99FE00197F1F700C00000EC
:1006B0008BB18F728BB98BB180628BB98FE99FE060
:1006C0000197F1F700C000008BB18F768BB98BB129
:1006D00080668BB98FE99FE00197F1F700C00000B9
:1006E0008BB18F748BB98BB180648BB98FE99FE02C
:1006F0000197F1F700C000008BB18F7C8BB98BB1F3
:10070000806C8BB98FE99FE00197F1F700C0000082
:100710008BB18F788BB98BB180688BB98FE99FE0F3
:100720000197F1F700C000002F5F3F4F02C020E0AB
:1007300030E0283031050CF497CF4F5F5F4F4034E5
:100740005105ACF38BB18F708BB9089584E690E0BE
:1007500007C0EFE1FEE43197F1F700C00000019718
:10076000329B0CC00097A9F780E009C0EFE1FEE4DE
:100770003197F1F700C000008F5F01C080E0329B2D
:10078000F5CF0895CF93DF93CDB7DEB760970FB65F
:10079000F894DEBF0FBECDBF0E94A6031F928F93B9
:1007A00084E691E09F938F93CE0101969F938F9360
:1007B0000E9466040F900F900F900F900F900F9073
:1007C00020E030E008C08091C00085FFFCCF90930E
:1007D000C6002F5F3F4FE1E0F0E0EC0FFD1FE20F9E
:1007E000F31F90819111EFCF2FEF83ED90E3215014
:1007F00080409040E1F700C0000060960FB6F8948A
:10080000DEBF0FBECDBFDF91CF91089588E1809309
:10081000C10086E08093C2001092C50087E68093F5
:10082000C40008951092C00088E18093C10086E062
:100830008093C2001092C50087E68093C40008959B
:100840009091C00095FFFCCF8093C6000895CF9390
:10085000DF93EC0103C00E9420042196888181115E
:10086000FACF8AE00E942004DF91CF910895FC0125
:1008700007C09091C00095FFFCCF31968093C600D1
:1008800080818111F6CF0895A1E21A2EAA1BBB1B0D
:10089000FD010DC0AA1FBB1FEE1FFF1FA217B3074C
:1008A000E407F50720F0A21BB30BE40BF50B661F62
:1008B000771F881F991F1A9469F760957095809526
:1008C00090959B01AC01BD01CF010895AEE0B0E071
:1008D000ECE6F4E00C9427070D891E8986E08C83F2
:1008E0001A8309838FEF9FE79E838D83AE01475E56
:1008F0005F4F6F89788DCE0101960E948804EF8149
:10090000F885E00FF11F10822E96E4E00C94430767
:10091000ABE0B0E0EEE8F4E00C9419076C017B0169
:100920008A01FC0117821682838181FFCCC1CE012E
:1009300001963C01F6019381F70193FD859193FFA8
:1009400081917F01882309F4BAC1853239F493FD7E
:10095000859193FF81917F01853229F4B60190E062
:100960000E947F06E7CF912C212C312CFFE1F3155B
:10097000D8F08B3279F038F4803279F08332A1F4F8
:10098000232D20611DC08D3261F0803369F4232D49
:10099000216016C0832D8260382EE32DE4603E2E48
:1009A0002AC0F32DF8601DC037FC2DC020ED280FA4
:1009B0002A3040F08E32B9F436FC81C1232D2064F8
:1009C000322E19C036FE06C08AE0989E200D1124F2
:1009D000922E11C0EAE02E9E200D1124222EF32D1E
:1009E000F0623F2E08C08C3621F4832D8068382EAB
:1009F00002C0883641F4F70193FD859193FF819100
:100A00007F018111B3CF982F9F7D9554933028F4A7
:100A10000C5F1F4F9FE399830DC0833631F08337FE
:100A200071F0833509F059C021C0F80180818983B4
:100A30000E5F1F4F88248394912C530113C028010B
:100A4000F2E04F0E511CF801A080B18036FE03C0C9
:100A5000692D70E002C06FEF7FEFC5010E94740640
:100A60004C018201F32DFF773F2E16C0280122E0B2
:100A7000420E511CF801A080B18036FE03C0692DE2
:100A800070E002C06FEF7FEFC5010E9469064C0164
:100A9000F32DF0683F2E820133FC1BC0822D90E0C5
:100AA00088169906B0F4B60180E290E00E947F06B5
:100AB0002A94F4CFF50137FC859137FE81915F01CF
:100AC000B60190E00E947F0621102A9421E0821A4C
:100AD00091088114910471F7E8C0843611F08936C9
:100AE00041F5F80137FE07C06081718182819381F1
:100AF0000C5F1F4F08C060817181072E000C880BAE
:100B0000990B0E5F1F4FF32DFF763F2E97FF09C005
:100B100090958095709561957F4F8F4F9F4FF068AE
:100B20003F2E2AE030E0A3010E94BB06882E8618E3
:100B300045C0853731F4232D2F7EB22E2AE030E0D8
:100B400025C0932D997FB92E8F36C1F018F48835C2
:100B500079F0B5C0803719F0883721F0B0C0E92F9F
:100B6000E061BE2EB4FE0DC0FB2DF460BF2E09C0A7
:100B700034FE0AC0292F2660B22E06C028E030E0DD
:100B800005C020E130E002C020E132E0F801B7FE0C
:100B900007C060817181828193810C5F1F4F06C005
:100BA0006081718180E090E00E5F1F4FA3010E9481
:100BB000BB06882E8618FB2DFF773F2E36FE0DC014
:100BC000232D2E7FA22E891458F434FE0BC032FC44
:100BD00009C0832D8E7EA82E05C0B82CA32C03C07F
:100BE000B82C01C0B92CA4FE0FC0FE01E80DF11D08
:100BF0008081803321F49A2D997EA92E09C0A2FE0E
:100C000006C0B394B39404C08A2D867809F0B394D7
:100C1000A3FC11C0A0FE06C0B21488F4280C922CCC
:100C20009B180EC0B21460F4B60180E290E00E94FE
:100C30007F06B394F7CFB21418F42B1802C0982C87
:100C4000212CA4FE10C0B60180E390E00E947F0634
:100C5000A2FE17C0A1FC03C088E790E002C088E5AF
:100C600090E0B6010CC08A2D867859F0A1FE02C032
:100C70008BE201C080E2A7FC8DE2B60190E00E9409
:100C80007F06891438F4B60180E390E00E947F0665
:100C90009A94F7CF8A94F301E80DF11D8081B60193
:100CA00090E00E947F068110F5CF222009F442CE09
:100CB000B60180E290E00E947F062A94F6CFF6010A
:100CC0008681978102C08FEF9FEF2B96E2E10C9413
:100CD0003507FC010590615070400110D8F78095F0
:100CE00090958E0F9F1F0895FC01615070400190F8
:100CF0000110D8F7809590958E0F9F1F08950F9340
:100D00001F93CF93DF93FB01238121FD03C08FEF5E
:100D10009FEF2CC022FF16C0468157812481358168
:100D20004217530744F4A081B1819D012F5F3F4FCB
:100D3000318320838C93268137812F5F3F4F378308
:100D4000268314C08B01EC01FB010084F185E02DAA
:100D50000995892BE1F6D80116968D919C911797EC
:100D6000019617969C938E931697CE01DF91CF91A3
:100D70001F910F910895FA01AA27283051F12031CF
:100D800081F1E8946F936E7F6E5F7F4F8F4F9F4F1F
:100D9000AF4FB1E03ED0B4E03CD0670F781F891F61
:100DA0009A1FA11D680F791F8A1F911DA11D6A0F2F
:100DB000711D811D911DA11D20D009F468943F91E2
:100DC0002AE0269F11243019305D3193DEF6CF01E1
:100DD0000895462F4770405D4193B3E00FD0C9F7A7
:100DE000F6CF462F4F70405D4A3318F0495D31FD14
:100DF0004052419302D0A9F7EACFB4E0A695979567
:100E0000879577956795BA95C9F70097610571053C
:100E100008959B01AC010A2E069457954795379586
:100E20002795BA95C9F7620F731F841F951FA01DE0
:100E300008952F923F924F925F926F927F928F927E
:100E40009F92AF92BF92CF92DF92EF92FF920F9359
:100E50001F93CF93DF93CDB7DEB7CA1BDB0B0FB663
:100E6000F894DEBF0FBECDBF09942A883988488820
:100E70005F846E847D848C849B84AA84B984C884B6
:100E8000DF80EE80FD800C811B81AA81B981CE0FAD
:100E9000D11D0FB6F894DEBF0FBECDBFED01089592
:040EA000F894FFCFF4
:100EA4000174656D70657261747572653A256400CC
:100EB40068756D69646974793A20256400736F6993
:100EC4006C203A202564200A006C69676874203A13
:100ED400202564200A0066697265203A2030200AC1
:100EE4000066697265203A2031200A0077617465D2
:100EF40072203A2030200A007761746572203A200B
:100F040031200A0050756C73652077696474683AFF
:060F14002025640D0A0017
:00000001FF
