:100000000C9434000C9449000C9449000C94490061
:100010000C9449000C9449000C9449000C9449003C
:100020000C9449000C9449000C9449000C9449002C
:100030000C9449000C9449000C9449000C9449001C
:100040000C9449000C9449000C9449000C9449000C
:100050000C9449000C9449000C9449000C944900FC
:100060000C9449000C94490011241FBECFEFD8E036
:10007000DEBFCDBF11E0A0E0B1E0EAEDF8E002C0E4
:1000800005900D92A631B107D9F70E94F8000C94A3
:100090006B040C940000CF93DF9300D000D01F922C
:1000A000CDB7DEB7782FFE01319695E0DF011D92C6
:1000B0009A95E9F797B1906297B998B1906298B91B
:1000C000BFEF21EE84E0B15020408040E1F700C056
:1000D000000098B19F7D98B99FEFA0EEB0E09150DD
:1000E000A040B040E1F700C0000098B1906298B91C
:1000F00025E02A95F1F7000097B19F7D97B980ED33
:100100008A95F1F735995AC0AFE3B1E01197F1F74D
:1001100000C00000359B54C08FE391E00197F1F7D8
:1001200000C0000080E023C0359BFECFA0EAAA9566
:10013000F1F7359B0CC047E050E0491B510921E025
:1001400030E002C0220F331F4A95E2F7622B359947
:10015000FECF9F5F02C060E090E0983028F3E1E0BE
:10016000F0E0EC0FFD1FE80FF11D60838F5F85301D
:1001700090F387B1806287B988B1806288B9BFEF98
:1001800021EE84E0B15020408040E1F700C0000043
:1001900099812A8130E0290F311D8B81280F311D73
:1001A0004C81240F311D4D8150E02417350751F447
:1001B000772359F0713041F08FEF07C08FEF05C002
:1001C0008FEF03C08FEF01C0892F0F900F900F901A
:1001D0000F900F90DF91CF910895CF93DF93EB01B4
:1001E0000E944B008F3F09F08883DF91CF910895E3
:1001F000CF93DF93CDB7DEB7A9970FB6F894DEBFE4
:100200000FBECDBF1982FE01329688E2DF011D923A
:100210008A95E9F70E945C01BE016F5F7F4F80E025
:100220000E94ED0089811F928F9380E091E09F935F
:100230008F938E010E5F1F4F1F930F930E948101BA
:10024000C8010E9471010F2EF8E2FF2EF02DF80177
:100250002F2D11922A95E9F78FEF93EDA0E38150AE
:100260009040A040E1F700C00000BE016F5F7F4FEB
:1002700081E00E94ED0089811F928F938AE091E0D6
:100280009F938F931F930F930E948101C8010E9437
:100290007101F8011192FA94E9F7FFEF23ED80E381
:1002A000F15020408040E1F700C000000FB6F89404
:1002B000DEBF0FBECDBFB0CF1092C00088E18093EB
:1002C000C10086E08093C2001092C50087E680934B
:1002D000C40008959091C00095FFFCCF8093C600A4
:1002E0000895CF93DF93EC0103C00E946A01219629
:1002F00088818111FACF8AE00E946A01DF91CF9153
:100300000895AEE0B0E0E7E8F1E00C9442040D8916
:100310001E8986E08C831A8309838FEF9FE79E8373
:100320008D83AE01475E5F4F6F89788DCE01019658
:100330000E94A301EF81F885E00FF11F10822E9635
:10034000E4E00C945E04ABE0B0E0E9EAF1E00C9488
:1003500034046C017B018A01FC01178216828381BF
:1003600081FFCCC1CE0101963C01F6019381F701DA
:1003700093FD859193FF81917F01882309F4BAC190
:10038000853239F493FD859193FF81917F01853208
:1003900029F4B60190E00E949A03E7CF912C212C1A
:1003A000312CFFE1F315D8F08B3279F038F480323C
:1003B00079F08332A1F4232D20611DC08D3261F0CC
:1003C000803369F4232D216016C0832D8260382E7E
:1003D000E32DE4603E2E2AC0F32DF8601DC037FCEB
:1003E0002DC020ED280F2A3040F08E32B9F436FCB3
:1003F00081C1232D2064322E19C036FE06C08AE04A
:10040000989E200D1124922E11C0EAE02E9E200D00
:100410001124222EF32DF0623F2E08C08C3621F4D9
:10042000832D8068382E02C0883641F4F70193FD91
:10043000859193FF81917F018111B3CF982F9F7D8B
:100440009554933028F40C5F1F4F9FE399830DC0A0
:10045000833631F0833771F0833509F059C021C0FC
:10046000F801808189830E5F1F4F88248394912C2B
:10047000530113C02801F2E04F0E511CF801A08077
:10048000B18036FE03C0692D70E002C06FEF7FEFD0
:10049000C5010E948F034C018201F32DFF773F2E8F
:1004A00016C0280122E0420E511CF801A080B18044
:1004B00036FE03C0692D70E002C06FEF7FEFC5010B
:1004C0000E9484034C01F32DF0683F2E820133FC1F
:1004D0001BC0822D90E088169906B0F4B60180E228
:1004E00090E00E949A032A94F4CFF50137FC85919D
:1004F00037FE81915F01B60190E00E949A032110BE
:100500002A9421E0821A91088114910471F7E8C0BD
:10051000843611F0893641F5F80137FE07C0608155
:100520007181828193810C5F1F4F08C0608171814E
:10053000072E000C880B990B0E5F1F4FF32DFF76D3
:100540003F2E97FF09C090958095709561957F4FDC
:100550008F4F9F4FF0683F2E2AE030E0A3010E94AA
:10056000D603882E861845C0853731F4232D2F7E7B
:10057000B22E2AE030E025C0932D997FB92E8F3618
:10058000C1F018F4883579F0B5C0803719F0883794
:1005900021F0B0C0E92FE061BE2EB4FE0DC0FB2DEE
:1005A000F460BF2E09C034FE0AC0292F2660B22E87
:1005B00006C028E030E005C020E130E002C020E1C4
:1005C00032E0F801B7FE07C06081718182819381BA
:1005D0000C5F1F4F06C06081718180E090E00E5F6C
:1005E0001F4FA3010E94D603882E8618FB2DFF778C
:1005F0003F2E36FE0DC0232D2E7FA22E891458F4D7
:1006000034FE0BC032FC09C0832D8E7EA82E05C09F
:10061000B82CA32C03C0B82C01C0B92CA4FE0FC069
:10062000FE01E80DF11D8081803321F49A2D997E21
:10063000A92E09C0A2FE06C0B394B39404C08A2DAB
:10064000867809F0B394A3FC11C0A0FE06C0B214D2
:1006500088F4280C922C9B180EC0B21460F4B601DA
:1006600080E290E00E949A03B394F7CFB21418F49A
:100670002B1802C0982C212CA4FE10C0B60180E3D8
:1006800090E00E949A03A2FE17C0A1FC03C088E775
:1006900090E002C088E590E0B6010CC08A2D867813
:1006A00059F0A1FE02C08BE201C080E2A7FC8DE2FE
:1006B000B60190E00E949A03891438F4B60180E3F1
:1006C00090E00E949A039A94F7CF8A94F301E80D80
:1006D000F11D8081B60190E00E949A038110F5CF50
:1006E000222009F442CEB60180E290E00E949A03F3
:1006F0002A94F6CFF6018681978102C08FEF9FEF93
:100700002B96E2E10C945004FC010590615070407E
:100710000110D8F7809590958E0F9F1F0895FC01CA
:100720006150704001900110D8F7809590958E0F20
:100730009F1F08950F931F93CF93DF93FB01238196
:1007400021FD03C08FEF9FEF2CC022FF16C0468112
:100750005781248135814217530744F4A081B18128
:100760009D012F5F3F4F318320838C9326813781FA
:100770002F5F3F4F3783268314C08B01EC01FB01B1
:100780000084F185E02D0995892BE1F6D8011696B4
:100790008D919C911797019617969C938E9316971F
:1007A000CE01DF91CF911F910F910895FA01AA27F1
:1007B000283051F1203181F1E8946F936E7F6E5FA4
:1007C0007F4F8F4F9F4FAF4FB1E03ED0B4E03CD052
:1007D000670F781F891F9A1FA11D680F791F8A1F35
:1007E000911DA11D6A0F711D811D911DA11D20D09C
:1007F00009F468943F912AE0269F11243019305D56
:100800003193DEF6CF010895462F4770405D419346
:10081000B3E00FD0C9F7F6CF462F4F70405D4A3393
:1008200018F0495D31FD4052419302D0A9F7EACF5B
:10083000B4E0A6959795879577956795BA95C9F78A
:1008400000976105710508959B01AC010A2E06947D
:100850005795479537952795BA95C9F7620F731F36
:10086000841F951FA01D08952F923F924F925F9273
:100870006F927F928F929F92AF92BF92CF92DF92B0
:10088000EF92FF920F931F93CF93DF93CDB7DEB715
:10089000CA1BDB0B0FB6F894DEBF0FBECDBF0994A9
:1008A0002A88398848885F846E847D848C849B8400
:1008B000AA84B984C884DF80EE80FD800C811B810E
:1008C000AA81B981CE0FD11D0FB6F894DEBF0FBE3D
:0A08D000CDBFED010895F894FFCFAD
:1008DA002754656D703A25642700272F2F48756DB8
:0608EA00693A25642700B5
:00000001FF
